:020000040800F2
:100000000010002065010008690100086B0100086C
:1000100000000000000000000000000000000000E0
:100020000000000000000000000000008501000842
:10003000000000000000000087010008B50800086B
:1000400095010008000000009501000895010008D6
:100050009501000895010008950100089501000828
:1000600000000000950100089501000895010008B6
:1000700095010008950100089501000800000000A6
:100080009501000800000000000000009501000834
:100090000000000095010008950100089501000886
:1000A0000000000095010008000000009501000814
:1000B00073B500F025FB204A204B21498B4226D303
:1000C0000021204B204A934224D3002600F01CFB41
:1000D000684601A900F00CFB1C4C1D4D641BA410CC
:1000E000B44219DC00261B4C1B4D641BA410B44207
:1000F00017DC0199009801F09BFB0500174C184E86
:10010000A41BA410002C11DC280000F0EDFA01CA99
:1001100001C3D3E702C3D6E7B300EB5898470136D3
:10012000DEE7B300EB5898470136E0E7013CA30057
:10013000F3589847E6E7C0468C1B000800000020F3
:10014000180000201800002060020020C0010008F4
:10015000C0010008C8010008C0010008C80100086B
:10016000C801000809480047FEE70420714608421C
:1001700002D0EFF3098001E0EFF308807146044AF2
:100180001047FEE7FEE7FEE770470000B1000008F9
:0601900083010008FEE7F8
:100198008C1B000800000020180000208C1B0008A1
:1001A800000000000000000018000020600200208D
:1001B8000000000000000000650C0008051700089A
:1001C80070B50500FA200D4B8000197801F042FB4C
:1001D8000B4C0100206801F03DFB00F061F80400C1
:1001E8000120002C09D1032D07D80238220029004C
:1001F80000F02CF82000034B1D6070BD00000020AB
:1002080010000020040000201023064A10B51168D1
:1002180003200B431360FFF7D3FF00F033FD0020EA
:1002280010BDC04600200240034A044B11681B78E9
:100238005B1813607047C0461800002000000020BB
:10024800014B18687047C0461800002010B5FF24FD
:1002580003220B0021000240D20091409B01234061
:10026800C943934000280ADBC0240B4A8008800059
:100278008018A40002590A401343035110BD0F22ED
:1002880010400838054A800880008018C26911406B
:100298001943C161F2E7C04600E100E000ED00E06B
:1002A8008022431E5204012093420DD2C021074AE6
:1002B80007485360036A09061B021B0A0B430362C3
:1002C80000200723906013607047C04610E000E0EC
:1002D80000ED00E0054B1A68042802D110431860AD
:1002E800704704218A431A60FAE7C04610E000E02C
:1002F8000C4A1021D06830B503000B40084205D0E5
:1003080002230948C4692343C3610B000420D16850
:10031800014205D00121044C0343E5692943E16109
:10032800D36030BD0020024020000020064B002092
:100338001A69120606D5054A5A60054A5A601869AC
:100348000006C00F7047C0460020024023016745E1
:10035800AB89EFCD8023034A002011690B43136159
:100368007047C0460020024070B50400FFF768FFE0
:1003780001260500104BDA68324211D12022D968D3
:10038800114200D0DA60D9681022080010401142EA
:1003980002D1DB685B0708D5FFF7AAFF012004E05C
:1003A800621CE8D0002C01D1032070BDFFF748FF84
:1003B800401BA042DED9F7E700200240F0B585B027
:1003C80003931E4B009102921A7E04000220012A18
:1003D80031D001221A481A76FFF7C6FF002827D124
:1003E8002600012C03D00426022C00D1260000246C
:1003F800124B019302980399220101F0B7FA0022E7
:100408000127019B0F4DDA612B69009A3B432B6151
:1004180063009B1880B218800948FFF7A5FF2B6975
:10042800BB432B61002803D1E419E3B29E42E1D813
:100438000022024B1A7605B0F0BDC046200000200D
:1004480050C30000002002400022064BDA61064B30
:10045800043219690A431A61402219690A431A6168
:100468007047C04620000020002002400022064BB2
:10047800DA61064B023219690A431A61402258614F
:1004880019690A431A6170472000002000200240C1
:10049800F8B5214F04003B7E0E000220012B0CD042
:1004A80001233B7623681D48012B12D1FFF75CFF1F
:1004B800002803D0012000233B76F8BDFFF7C4FFD6
:1004C8001648FFF751FF0421154A13698B4313613E
:1004D800F1E7FFF749FF0028ECD101235B423360C5
:1004E80065680130A36862689B029B18AB42E2D939
:1004F8002800FFF7BBFF0948FFF736FF0221084A2B
:1005080013698B431361002801D03560D3E780233A
:10051800DB00ED18E6E7C0462000002050C30000CD
:10052800002002400023F0B587B001930B68019CBE
:100538001A00E24001D107B0F0BD0126019A9640A9
:100548001A003240944633421CD04B6810221F00D8
:100558009743019A3D0054000322A240013DD24333
:100568000297012D11D98D68C668A54016403543FC
:10057800C5600568154003221A40A2402A4302605C
:10058800DA0040D4019B0133CFE785681540AC46BB
:10059800CD686746A5403D4385604568019FB543E2
:1005A8002E001D09BD40354345608D68C668A540CD
:1005B80016403543C56003252B400393029B022B4D
:1005C80006D0039B0568A34015402B430360D9E779
:1005D8000727019E019D37400F26BF00BE40B44645
:1005E800ED08AD0045192B6A1E0063469E43B446CC
:1005F8000E696346BE401E43039B2E62A3400568F6
:100608002A401343E2E70125264A90279469FF050B
:100618002C43946192692A400592059A019A023501
:100628009408214AA400A418019AA66815400F222C
:10063800AD00AA4096430022B8420CD01B4F0132AD
:10064800B84208D01A4F0132B84204D0194F0332C9
:10065800B84200D1023AAA403243A26065466446D5
:10066800154AE44316683543DF0301D435002540B5
:1006780015606546566835439F0301D4350025400B
:100688005560654696683543DF0201D4350025403C
:1006980066469560D5682E439B0201D425402E00FE
:1006A800D6606FE7001002400000014000040048D7
:1006B80000080048000C0048000401400069084098
:1006C800431E9841C0B27047002A01D0816170472B
:1006D8008162FCE7014B18687047C0461000002093
:1006E80010B500F011F8000001230360014B0B6006
:1006F8007047C0460800002010B500F013F810BD80
:1007080010B500F011F810BDBFF34F8F034B044A2A
:10071800DA60BFF34F8FC046FDE7C04600ED00E04A
:100728000400FA05704700000C2270B5104D6B6884
:100738001340082B19D1686807336A68800C184081
:10074800E96A841CD2030ED519400A48013101F028
:1007580081F860436B68084A1B061B0FD35C074986
:10076800D840086070BD0648F3E70248F2E7C04683
:100778000010024000127A00341A0008100000200D
:1007880000093D0010B5FFF7A5FFFA21890001F027
:1007980061F8FFF785FD0420FFF79CFD10BD000000
:1007A8001FB5FFF731FDFFF7EDFFFFF7BDFF802114
:1007B8000E4B89025A690A435A615A690A408021D4
:1007C8000192019A5A69C9020A435A615A690A4050
:1007D80080210292029A5A69C9030A435A615B69E5
:1007E8000B400393039B05B000BDC04600100240B8
:1007F800013810B5132807D8054BC000C4581B187A
:100808005B680C60136010BD00230B60FAE7C046FC
:10081800441A0008F0B50F000021040016001D005E
:1008280087B088421CD0102202A801F0ABF8701ED5
:100838000197032805D801F003F80216181A0123B6
:10084800029301231D4200D003930222154202D0D5
:10085800039B1A43039201A92000FFF763FE0121BD
:10086800080007B0F0BD1123EAE71223E8E70323E5
:10087800E6E710B5002803D0012289B2FFF724FF6C
:1008880010BD10B5002803D0002289B2FFF71CFF65
:1008980010BD030010B5002806D089B2FFF70EFF7F
:1008A800013843425841C3B2180010BD10B5FFF7D4
:1008B800BBFC024A13680133136010BD5C000020C2
:1008C800012070471FB50400FFF730FD002369467B
:1008D800019301A8013303930294FFF7D9FD0400A3
:1008E80063425C41FFF736FDE0B204B010BD000082
:1008F800030010B55B085B0008000A005B18064996
:100908009A4201D1012010BD0232941E24888C42E3
:10091800F6D0FFF7D7FFF6E7FFFF000070B50D0030
:100928000400FFF703FD2A00002321000120FFF740
:1009380045FD040063425C41FFF70CFDE0B270BD69
:1009480010B5816804004068FFF7D2FF002809D07D
:100958000021A068FFF7E2FF002803D0E168606883
:10096800FFF7C6FF10BD000010B50248FFF7E8FF0B
:1009780010BDC04644000020094A0A4B118A99421A
:100988000AD0518A994209D0918A994203D1022307
:1009980008335B00D05270470023F9E70123F7E7DB
:1009A80044000020FFFF0000C36830B51C8883683E
:1009B80005001B88002B03D00020844215D1012399
:1009C80068682C684343C0181D1D02386519231830
:1009D800981CA84201D8002007E01C88043B8C42E0
:1009E800F6D1043803880120138030BD10B5034BBD
:1009F8000A0001001800FFF7D7FF10BD44000020CF
:100A0800836870B50C0011001A88C3681B88002B16
:100A18000ED1134BD3185A1E9341026840684343C2
:100A28001D1DC0185519121895420AD3022002E05C
:100A3800002A01D0002070BD094A9B185A42534130
:100A4800EBE72B68013309D12800FFF767FF00287F
:100A5800F0D02100A81CFFF761FFECE70435E3E7BD
:100A68001211FFFFF0B5434C434EA068E1680288BD
:100A78000B88424D85B0B24241D0AA422FD0002AFD
:100A880000D072E0002B00D16FE027000192AB424A
:100A980000D166E03E8AE368AE4218D0DB88B342F4
:100AA8000FD002AB310020009A1DFFF77DFF002810
:100AB80007D002AB31002000DA88FFF7A1FF012838
:100AC8001BD1019B023701330193032BE2D1002193
:100AD800E068FFF723FF00280FD0A16841E001007C
:100AE800002B3ED0B34240D16068FFF701FF0028D9
:100AF80003D00021E068FFF711FF05B0F0BD002B1F
:100B080009D0AB4231D16068FFF7F2FE0028F4D07B
:100B18000021A068EFE7270001933E8AA368AE4250
:100B280018D0DB88B3420FD002AB310020009A1DE9
:100B3800FFF73AFF002807D002AB31002000DA881F
:100B4800FFF75EFF0128D8D1019B023701330193DB
:100B5800032BE2D10021A068FFF7E0FE0028CCD0EB
:100B6800E1686068FFF7C4FEC7E72000FFF7E8FE0A
:100B7800C3E7C04644000020EEEE0000FFFF00007F
:100B8800F0B585681700C6682A8887B004003388DE
:100B98000291002A04D0002B05D0002007B0F0BD38
:100BA8002B0035001E0028001E49FFF7B7FE00285D
:100BB800F3D03A0020000299FFF722FF0128ECD178
:100BC800230027001633103703933B880193019ABB
:100BD800154B9A421AD0002304AAD380019B029A8B
:100BE80093420FD004AB200001999A1DFFF7DCFE59
:100BF800002807D004AB2000DA880199FFF700FF2E
:100C08000128CAD1039B02379F42DED131006068B8
:100C1800FFF76EFE0028C0D000212800FFF77EFEF7
:100C2800BCE7C046EEEE0000FFFF000070B50A4EBC
:100C38000A0004000D0001003000FFF7E1FE030088
:100C4800012807D00020022B04D12A0021003000FF
:100C5800FFF796FF70BDC046440000208021074B77
:100C6800C9001A68064B1A609A605218DA600122A5
:100C7800524259601A619A827047C0461400002097
:100C880044000020704710B503C801230022FFF775
:100C9800C1FD10BD10B5416804000068FFF7F9FDFB
:100CA800237A002803D0012B08D1012017E0002B5C
:100CB80013D1E368002B12DD01330FE00023E16854
:100CC800994206D0FA2001228000814200DB1A1CDA
:100CD800D3B223740023E360E7E70123E3602072C3
:100CE80010BD0138431E9841C0B2704710B50200CC
:100CF8000C1E01D1002010BD8B1C00210433181FCD
:100D08000088002812D10029F4D01089884201D91E
:100D18000123937200F024FE6288200089B2002A21
:100D2800E8D004348A4204D90078E4E7411889B24B
:100D3800E4E7891AF0E70000416810B5002910D0EF
:100D480003890A4A01339BB2934200D900230381E5
:100D58000468FFF7CBFF6168012803D12068FFF71B
:100D680088FD10BD2068FFF78CFDFAE74FC300002F
:100D780010B541680400002301220068FFF74AFD0E
:100D880000232372E360236110BD0369002B01DD9A
:100D9800013B0361704710B5037A012B09D0036941
:100DA800002B06DC01230372C368036103C8FFF745
:100DB80060FD10BD10B5037A002B09D00369002B24
:100DC80006DC00230372C368036103C8FFF759FDFB
:100DD80010BD10B503C800230122FFF71BFD10BD8D
:100DE80070B5040016001D0086B0080001AA694607
:100DF800FFF7FEFC019B009A30002260636003AAA3
:100E080002A9FFF7F5FC039B029A2800A260E360A1
:100E180005AA04A9FFF7ECFC059B200063610023E9
:100E2800049AA4612261E21CE3612384053293766B
:100E3800A26220326362E36223869372183AA26345
:100E4800A21C6363E363363213819372636406B052
:100E580070BD10B504008069FFF7BBFFA06AFFF7FB
:100E6800B8FFA06BFFF7B5FF10BD10B50400183030
:100E7800FFF762FF20002830FFF75EFF20003830C0
:100E8800FFF75AFF10BD0023836001330160426001
:100E98008381704783685A4253418360704710B515
:100EA80041680400012300220068FFF7B3FC002317
:100EB800A36010BD10B50400037B0020834208D056
:100EC80061682068FFF7E5FCA368012B01D0FFF7F4
:100ED80008FF607310BD0300027B0020824200D02F
:100EE800587B70470023036043608360704710B5E8
:100EF8000020FFF741FD0120FFF73EFD0320FFF72B
:100F08003BFDFFF7AFFD10BD026803005520012A25
:100F180000D100185B68012B03D1AA231B021843D8
:100F28007047AA23DB01FAE7CAB20300AA2A0DD048
:100F38000020552A09D10200090AAA2908D0002050
:100F4800552902D1586001201A6070470122F3E741
:100F58000120F7E770B50500FFF7D6FF0400010090
:100F68000020FFF763FE00280FD1FFF7FDFC2100EA
:100F78000020FFF75BFE002815D1FFF7F5FC0020E5
:100F8800012328606860AB600CE021000120FFF7B6
:100F98004DFE0028E9D021000320FFF747FE002876
:100FA800E3D0012070BD21000120FFF73FFE00289B
:100FB800E3D021000320FFF739FE0028DDD0F0E759
:100FC80037B500256B460400991C28005D809D807C
:100FD800DD80FFF70BFDA84208D1FFF7C5FC002311
:100FE800200023606360FFF7B5FF3EBD012001A923
:100FF800FFF7FCFC0028F0D06B460320991DFFF793
:10100800F5FC0028E9D06B466A4669465B889288F9
:10101800C988934207D08A4207D12000FFF784FF8E
:101028000028DAD0E1E71900F7E78B42F5D029006C
:10103800F3E703680A0010B5040003CB012A07D1BF
:10104800FFF717FCE368636000232381A37210BDD8
:10105800FFF717FCF6E773B504000E0A0D0C1830FD
:10106800C9B2FFF7E6FF2000F6B231002830FFF7DB
:10107800E0FF2000EDB229003830FFF7DAFF73BD3A
:1010880070B5002504008AB00570043000F03EFBFE
:101098002000112303220621B830FFF7A1FE601CAF
:1010A800072308220921FF30FFF79AFE2000493064
:1010B8000C230D220E21FF30FFF792FE694601AA8C
:1010C8001320FFF795FB20009130019A0099FF301B
:1010D800FFF7D9FE03AA02A91220FFF789FB200017
:1010E800A130039A0299FF30FFF7CDFE05AA04A9A3
:1010F8000B20FFF77DFBD82304995B00E150230008
:10110800059AB133FF335A601D72DD601D6107AA6D
:1011180006A90220FFF76CFBE22306995B00E15069
:1011280023000126079AC533FF335A601E72DD601B
:101138001D7409AA08A90A20FFF75AFBEC2308998D
:101148005B00E15023002000099AD933FF33ED30CA
:101158005A601E72DD601D74FF30FFF7C3FEFC236A
:10116800012220005B005242E25001320433FF3278
:10117800E2520AB070BDF8B504002500ED35FF3520
:10118800FFF70EFB2800FFF7B2FE28005C3DFFF7D3
:1011980017FF2800FFF783FEF6235B00E3582700BC
:1011A800AB6010352800FFF77AFEF8235B00E358A0
:1011B800B137AB60FFF784FB23000025AC33601C1C
:1011C80065602572FF301D809D709D809D711D8119
:1011D800FFF73FFE2000B830FFF73BFE2000493004
:1011E800FF37FF30FFF735FE3800FFF7C1FD20005D
:1011F800FA23C5309B00FB60FF30FFF744FD200059
:10120800D930261DFF30FFF73EFD3000012100F0E8
:10121800D9FAFC235B00E0540A21300000F0D2FA2E
:10122800FA23FF33E0540A21300000F0CBFAFD2303
:101238005B00E0540A21300000F0C4FAFC23FF33BD
:10124800E0540121300000F0BDFAFE235B00E054B9
:10125800FE23FF332570E554F8BD0000012310B5C7
:101268000370030004000C490C4A1933FF3359601A
:101278005A6139340A4BFF346360683C61606362C9
:10128800626120346167010081307131FF31FF30C4
:101298004A60436010BDC046501B0008241B00086C
:1012A800F81A0008030070B56133FF339B7A040015
:1012B800002B19D00D4A01305378117895781B020C
:1012C8000B432D041D432900FF30FFF7C4FE200007
:1012D8002900B830FFF7BFFE200049302900FF3051
:1012E800FFF7B9FE0223237070BDC046831B0008B8
:1012F800022310B50370FE2300220400FF33C254FA
:10130800B130FF30FFF756FD2000064A49305378C8
:1013180011781B020B439178FF3009041943FFF73A
:101328009AFE10BD831B0008032310B50370FE232B
:1013380000220400FF33C254B130FF30FFF73AFDFA
:101348002000064A4930537811781B020B439178E4
:10135800FF3009041943FFF77EFE10BD801B00080B
:10136800FE2310B5FF330400002A23D1C254B13044
:10137800FF30FFF71FFD2300ED33FF339B68012B80
:101388000AD122001B4B1C496132FF325360516164
:101398008134FF34636010BD184A200053781178F7
:1013A8001B020B43917849300904FF301943FFF7BA
:1013B80052FEF0E7002902D1C25C002AEBD02000DF
:1013C8000122B130E254FF30FFF7E5FC2300ED3392
:1013D800FF339B68012B0AD12300074A6133FF338F
:1013E8005A602200034B7132FF325360D0E7044A3F
:1013F800D3E7C046F01A0008E41A0008831B000867
:10140800861B00080200002110B5C532FF32137C8C
:10141800040011748B4229D0FE230122FF33C254E9
:10142800B130FF30FFF7B7FC2300ED33FF339B6883
:10143800012B0DD123001D4A6133FF335A6022006E
:101448001B4B7132FF3281345360FF34636010BD2F
:10145800184A2000537811781B020B4391784930C1
:101468000904FF301943FFF7F6FDF0E70200D9320F
:10147800FF32117C13740029E9D0FE22FF32835415
:10148800B130FF30FFF796FC2300ED33FF339B6844
:10149800012B09D12200064B6132FF32813453609F
:1014A8005361FF34014BD1E7034AD2E7E41A00083D
:1014B800F01A0008861B0008801B0008F0B507001A
:1014C8000400A137FF3785B03800FFF704FD23007B
:1014D8009133FF33029018000193FFF7FCFC029B45
:1014E8000390601C4B4AFF30002B04D1BB684A4A6A
:1014F800002B00D0494A537811781B020B4391788E
:1015080009041943FFF7A7FD2000039B414AB8309F
:10151800002B07D123009133FF339B683E4A002BF1
:1015280000D03E4A537811781B020B43250091786E
:10153800260009041943FFF78EFDFA23C535FF3548
:10154800EA68D9369B00FF369A4216DBEC235B002B
:101558007168E058FFF79DF900280ED00198FFF751
:1015680099FC0023EB6023009133FF339A68F6233C
:101578005B00E250E018FFF7EDFCFA23F2689B00ED
:101588009A4218DBE2235B006968E058FFF781F9AB
:10159800002810D03800FFF77DFC0023F3602300FB
:1015A800A133FF339A682000F823ED305B00E25046
:1015B800FF30FFF7CFFCFA23EA689B009A420EDB64
:1015C8002600D936FF36F2689A4208DB2378022BC8
:1015D8000DD12000FFF7A8FE0023EB60F36023780D
:1015E800032B0AD12000FFF70DFF05B0F0BD032B38
:1015F800F2D12000FFF77CFEEEE7039A0299531E12
:101608009A414B1E99412000D2B2C9B2FFF7A8FEF9
:10161800EBE7C046861B0008831B0008801B0008F8
:1016280070B5051D0400280000F07CF8FC235B0061
:1016380001222800E15C00F0D8F800280CDD601CCD
:10164800FF30FFF712FC2000B830FFF70EFC200037
:101658004930FF30FFF709FCFD235B000122280019
:10166800E15C00F0C2F8002809DD2000A130FF305D
:10167800FFF720FC20009130FF30FFF71BFCFE2312
:101688005B0001222800E15C00F0AFF8002804DDCF
:101698002000B130FF30FFF778FBFC23FF33012235
:1016A8002800E15C00F0A1F8002809DD2000C53021
:1016B800FF30FFF7EFFA2000D930FF30FFF7EAFAE2
:1016C8002378012B08D003D9023B012B08D970BD20
:1016D8002000FFF7C3FDFAE72000FFF7E3FDF6E778
:1016E800FA23FF3301222800E15C00F07EF800288D
:1016F800EDDD2000FFF7E2FEE9E7000010B5024843
:10170800FFF7BEFC10BDC0466000002002000023A9
:10171800A8320360037113809370938093711381CF
:1017280070470000264A30B51168002931DD0024D1
:1017380003685B1803600300146002791201121831
:10174800934227D10200AA321378012B0BD1010052
:10175800A8310B88002B06D0013B9BB20B80002BD5
:1017680001D1023313700100AE310B78012B10D177
:101778000400AC342288002A0BD0B0300388002B38
:1017880014D1FA23013A9B0092B203802280002AE6
:1017980012D030BD1969DD6801311961A94203DB36
:1017A80059691C61013159611033C9E7013B9BB28A
:1017B8000380002BEDD1E4E702230B70E9E7C04674
:1017C8005C00002010B50400FF2000290CDD2379FF
:1017D800092B09D80022581C1B01E318C0B2187243
:1017E800D9601A615A61207110BD030010B500203C
:1017F800FF2907D0814206D11868002802DD002A97
:1018080000D0196010BD1C7900208C42FAD3013930
:10181800C9B209015B1858690028F3DD002AF1D024
:1018280000225A61EEE7000010B5044C2000FFF7D3
:10183800A2FC2000FFF7F4FEFBE7C0466000002092
:1018480002B4714649084900095C49008E4402BC4B
:101858007047C046002243088B4274D303098B4269
:101868005FD3030A8B4244D3030B8B4228D3030C68
:101878008B420DD3FF22090212BA030C8B4202D30A
:101888001212090265D0030B8B4219D300E0090A32
:10189800C30B8B4201D3CB03C01A5241830B8B423B
:1018A80001D38B03C01A5241430B8B4201D34B0324
:1018B800C01A5241030B8B4201D30B03C01A524189
:1018C800C30A8B4201D3CB02C01A5241830A8B420E
:1018D80001D38B02C01A5241430A8B4201D34B02F7
:1018E800C01A5241030A8B4201D30B02C01A52415B
:1018F800CDD2C3098B4201D3CB01C01A524183090F
:101908008B4201D38B01C01A524143098B4201D348
:101918004B01C01A524103098B4201D30B01C01A73
:101928005241C3088B4201D3CB00C01A52418308ED
:101938008B4201D38B00C01A524143088B4201D31A
:101948004B00C01A5241411A00D20146524110467A
:101958007047FFE701B5002000F006F802BDC04659
:101968000029F7D076E770477047C046D0400B0093
:10197800D1409C46203AD340184352426346934094
:1019880018437047F0B50500830749D0541E002A54
:1019980045D003000326CAB202E00135013C3ED31C
:1019A80001332A703342F8D1032C30D9FF220A4080
:1019B800150215432A0415430F2C34D92700103F6C
:1019C8003F093E01B4461E001A00103666441560F1
:1019D80055609560D5601032B242F8D101373F01A9
:1019E800DB190F270C22274022403C00002A0ED08A
:1019F8003E1FB608B400A4461A001C1D644420C249
:101A0800A242FCD103240136B6009B193C40002CAD
:101A180005D0C9B21C19197001339C42FBD1F0BD25
:101A280003001400C0E72700E2E7C04600000000FA
:101A38000000000001020304060708090000000076
:101A480000000000001400480100000000140048D5
:101A5800020000000000000000000000000000007C
:101A680000000000000000480100000000000048DD
:101A780002000000000000480400000000000048C8
:101A880008000000000000481000000000000048A6
:101A9800200000000000004840000000000000484E
:101AA8008000000000040048020000000000000060
:101AB80000000000000000000000000000000048D6
:101AC8000002000000000048000400000000004878
:101AD8000020000000000048004000000100F40160
:101AE8000000F401000000000000F4010000000004
:101AF8000000F4010000F4010100EF0100000500FE
:101B08000000F4010000F4010100EF0100000500ED
:101B18000000F4010000F401000000000000F401DE
:101B28000100EF01000005000000F4010000F401CD
:101B38000100EF01000005000000F4010000F401BD
:101B48000100EF01000000000100EF0100000500A6
:101B58000000F4010000F4010100EF01000005009D
:101B68000000F4010000F4010100EF01000005008D
:101B78000000F40100000000000001000100010065
:011B8800005C
:101B8C0001FFFFFF040000004000002000000000E7
:081B9C0000127A000038000875
:04000005080000B13E
:00000001FF
